:100000000C946E000C948B000C9436040C945C04DD
:100010000C948B000C9494050C948B000C948B0026
:100020000C948B000C948B000C94A6040C948B0005
:100030000C948B000C948B000C948B000C948B0014
:100040000C948B000C948B000C948B000C948B0004
:100050000C948B000C948B000C949A0252455345DF
:1000600054004E4F495345004745494745520051BA
:100070000A802A0000000A510A000059551801118F
:100080001E111B500B411B411F1101511F511B0021
:1000900000000000000000000000000000510F916F
:1000A0003941149131411E410E411D500F802010E5
:1000B0001548864014780570855115510E5195519B
:1000C0008E219081205015484450C528C028200911
:1000D00050000000000000000000000011241FBEBE
:1000E000CFEFD4E0DEBFCDBF11E0A0E0B1E0E0E2B1
:1000F000FDE002C005900D92A230B107D9F721E0D2
:10010000A2E0B1E001C01D92AC38B207E1F70E9455
:10011000C1000C948E060C940000CF93DF930E94D4
:10012000B805EC0180E00E948603C83E23E0D207B8
:10013000D8F463E480E00E947E0360E581E00E94E1
:100140007E036DE482E00E947E0343E063E0CE0123
:100150000E94940360E086E00E947E0360E081E0FC
:10016000DF91CF910C94890360E280E00E947E03CE
:10017000CE01C93EDD4F10F088EE9DEF45E061E015
:10018000E7CF80E88093610083E080936100109264
:10019000700088E08093B60088EC8093B3001092E2
:1001A0006E0081E0809381008093B0008091B60062
:1001B0008570E1F72FE38DE093E02150804090407F
:1001C000E1F700C000009FEF41E0F89496BB97BBB9
:1001D00010928500109284001092B200B99BFECF5D
:1001E000109281007894B09908C0209184003091D9
:1001F00085002B3688E1380740F0809166008150F9
:100200008093660040938100E0CF283E374108F498
:1002100059C081E080938100109281001092B0005B
:1002200080E88093610093E09093610080BF87E055
:1002300080937F008FE085B980EF8EB90E94E9043A
:100240000E94F1030E948D040E947F020E940D050E
:10025000789460E088E690E00E9451039FED23E9E6
:1002600084E0915020408040E1F700C0000083E02E
:10027000C82E98EEE92E93E0F92EC4E6D0E00AE00D
:1002800010E02AE0D22E0E940406882361F00E942A
:100290000B060E94F00486E791E00197F1F700C099
:1002A00000000E9407050E948004843011F0823013
:1002B00069F48091020190E0019683709927809300
:1002C00002010EC0809166008F5F9ACF853011F0D9
:1002D0008330E1F480910201811116C0C0920201C5
:1002E0000E94FD05882329F160E082E690E00E94EB
:1002F000510383B7817F83BF83B7816083BF8895B4
:1003000083B78E7F83BFBFCF8150D9CF813041F774
:100310000E940E0660E08CE590E00E9451039FEF82
:1003200020E782E0915020408040E1F700C00000CB
:10033000D7CF80910201823009F44BC0833009F499
:100340007EC0813019F00E948D00D3CF0E94E3055A
:10035000803127E2920710F08FE097E2BE010E9401
:100360003506B62EA82E81E00E94860389E060E261
:100370008B1538F48B2D6D2D0E942906B92E60E364
:10038000680F80E00E947E0360E36B0D81E00E94B5
:100390007E038A2D6D2D0E942906B92E60E3680F19
:1003A00082E00E947E0360E36B0D83E00E947E0387
:1003B00065E584E00E947E0366E585E00E947E0399
:1003C00060E086E00E947E0360E081E00E94890395
:1003D00090CF0E94E305803127E2920710F08FE072
:1003E00097E2B7010E943506962E5C0181E00E94DB
:1003F000860360E280E00E947E0360E3690D81E095
:100400000E947E03C501BE010E943506605D82E048
:100410000E947E03C501B8010E943506B82ECB01AB
:10042000B8010E94350660E3680F83E00E947E03F6
:1004300060E36B0D84E00E947E0362E5BECF0E9404
:10044000F2054B015C0180E00E9486036EE480E0CF
:100450000E947E03C401D501803A26E8920721E07C
:10046000A207B10520F08FE996E8A1E0B0E045E0F1
:1004700061E00E949403A4CF663080F596ED980F5A
:10048000913568F5813608F08F7D8A52E82FF0E0CB
:10049000EE0FFF1FE159FF4F85919491562F517038
:1004A00040EF60FD4FE06695E62FF0E0E25AFE4F28
:1004B000BF016C5E7F4F382F3F7024E09695879583
:1004C0002A95E1F7552311F03295307F20812423BE
:1004D000232B20833596E617F70769F7089590E0F8
:1004E00080E0DCCF91E0811101C090E09195EEE5D4
:1004F000F1E0919381E0E237F807D9F7089580E0C1
:100500000E947202E7EEF0E080818F60808387EBCB
:100510008093E50087E08093E600A4EEB0E080ECF5
:100520008C938C9188608C938081806E80831092F4
:10053000070108951F920F920FB60F9211240F9387
:100540001F932F933F934F935F936F937F938F935B
:100550009F93AF93BF93CF93DF93EF93FF938091DC
:100560000A0181110CC0809103018F5F8093030108
:10057000843028F081E080930A0110920301809179
:10058000000181508093000190915D01992309F44D
:100590007EC0811107C080910601811174C081E085
:1005A0008093070180910701882309F44AC00091D4
:1005B0000501D0E0C0E010E06C2F80918B012C2F62
:1005C0002F5FAE01480F511D87FD5A9557FD17C08B
:1005D000111115C080918B01FE01EE58FE4FE80FFE
:1005E000F11D87FDFA958081982F991F9927991FF2
:1005F0008F7709F4122F992319F0053008F080E263
:100600000E943C022196C630D105B1F6AEE5B1E0BC
:10061000ECEEF0E08D918193E11551E0F507D1F713
:10062000809104018823B1F181E08093F4008AEF86
:10063000113019F080918B018F5F80938B011092A4
:10064000070180910001811103C083E080930001C4
:10065000809105018A3009F510920501FF91EF9113
:10066000DF91CF91BF91AF919F918F917F916F91CA
:100670005F914F913F912F911F910F910F900FBE5E
:100680000F901F9018958150809306018BCF109288
:100690008B0188CF1092F400CACF8F5F8093050141
:1006A000DDCF209107012111FCCFFC01A2E7B1E0D1
:1006B00080E09491992329F09F012F5F3F4F89316A
:1006C00099F4E82FF0E0EE58FE4F1082873088F062
:1006D00081E080935D0110928B0183E0809306019D
:1006E00081E0809307010895E491ED938F5FF90114
:1006F000E0CF10925D0110928B01F2CF893128F486
:10070000E82FF0E0EE58FE4F6083089580930401D7
:100710000895909107019111FCCF60935D011092B3
:100720008B01809307010895AF92BF92CF92DF9221
:10073000EF92FF920F931F93CF93DF93382F192FD0
:10074000262FE1E0F0E081E09AE08417C8F0D0E0E5
:10075000C0E0B12C8AE0E82EF12C842F8150990B57
:100760006C0190E2A92EC41798F0DF91CF911F91F0
:100770000F91FF90EF90DF90CF90BF90AF900895D2
:10078000BF01969FF001979FF00D11248F5FDDCF81
:10079000832F912FBF010E943506062F382F192F66
:1007A000CF01B7010E943506FB01011105C0B11050
:1007B00003C0CC16DD0659F4293130F4A22FB0E085
:1007C000AE58BE4F005D0C93BB24B39407C02931D3
:1007D00028F4A22FB0E0AE58BE4FAC9221962F5F06
:1007E000C2CF84B18F7284B985B1806D85B98DB166
:1007F000837C8DB98EB18C638EB98CE380936B0052
:1008000080ED80936C0080EC8CBB8DBB089583B130
:100810002CB130E0209530952C7033278095807D69
:10082000822B86FD1BC087FD1BC082FD1BC083FD84
:100830001BC084FF10C081E090910A01992359F0F8
:1008400090910801911105C08093090181E0809386
:10085000080110920A0180EC8CBB089584E0ECCF73
:1008600085E0EACF83E0E8CF82E0E6CF1F920F92E7
:100870000FB60F9211242F933F934F935F936F9373
:100880007F938F939F93AF93BF93EF93FF930E94B8
:1008900040050E940704FF91EF91BF91AF919F9196
:1008A0008F917F916F915F914F913F912F910F9019
:1008B0000FBE0F901F9018951F920F920FB60F92B8
:1008C00011242F933F934F935F936F937F938F9355
:1008D0009F93AF93BF93EF93FF930E940704FF9101
:1008E000EF91BF91AF919F918F917F916F915F91A8
:1008F0004F913F912F910F900FBE0F901F90189521
:10090000F89480910801882331F0809109011092B8
:1009100008017894089580E0FCCFEFE0F1E01182C7
:100920001082138212821582148217821682EBE0E3
:10093000F1E08FEF808381838283838382E08093E1
:100940006E0086E287BD8CE084BD08951F920F92F1
:100950000FB60F9211242F933F934F935F936F9392
:100960007F938F939F93AF93BF93CF93DF93EF9337
:10097000FF93CFE0D1E0E991F991309709F0099523
:1009800081E0C731D807B9F790E080E0FC01E55F6E
:10099000FE4F20812F3F31F02081222319F020814A
:1009A0002150208301968430910581F7FF91EF91CA
:1009B000DF91CF91BF91AF919F918F917F916F9177
:1009C0005F914F913F912F910F900FBE0F901F900D
:1009D0001895259A2D9A1092800010928100089502
:1009E00010928500109284008DE790E0909387002C
:1009F000809386008CE390E0909389008093880038
:100A000080E88093800081E18093810008951092B6
:100A10008000109281002D9A089590E080E0FC0102
:100A2000EF5DFE4F108201968C339105C1F7109255
:100A3000200110921F0110921B0110921C011092B4
:100A40001D0110921E0110921A01109219011092AC
:100A500017018CB18071809318011092700088E0AA
:100A60008093B6001092B20085E08093B000809130
:100A7000B6008570E1F781E087BB80937000089530
:100A80008CB185FB992790F921E0922790931A0168
:100A9000282F207184FD27C080911801882319F127
:100AA00080911A0181111FC080911F018F3F29F091
:100AB00080911F018F5F80931F0180911B01909196
:100AC0001C01A0911D01B0911E010196A11DB11D37
:100AD00080931B0190931C01A0931D01B0931E01F4
:100AE00081E08093190120931801089580912001DD
:100AF00090E001966CE370E00E944906809320012B
:100B0000E0912001F0E080911F01EF5DFE4F8083B6
:100B100010921F01809117018C3328F480911701E6
:100B20008F5F8093170108951F920F920FB60F9257
:100B300011242F933F934F935F936F937F938F93E2
:100B40009F93AF93BF93EF93FF930E947605FF911E
:100B5000EF91BF91AF919F918F917F916F915F9135
:100B60004F913F912F910F900FBE0F901F901895AE
:100B7000F8944091170170E060E090E080E0FB01A4
:100B8000EF5DFE4F2081820F911D6F5F7F4F6C33B1
:100B90007105A9F720911F017894442389F0280F4B
:100BA000392F311D4C3350F4ACE3B0E00E947F0686
:100BB000242F30E050E040E00E945D06C901089516
:100BC00030E020E0FBCF0E94B8059C01A4E6B0E035
:100BD0000E947F0625E330E040E050E00E945D0681
:100BE000C9010895F89460911B0170911C018091D6
:100BF0001D0190911E017894089590911A0181E051
:100C0000911101C080E008959091190181E0911146
:100C100001C080E00895109219010895F89490E0C1
:100C200080E0FC01EF5DFE4F108201968C33910550
:100C3000C1F71092200110921F0110921B01109217
:100C40001C0110921D0110921E0110921701789440
:100C50000895991B79E004C0991F961708F0961B18
:100C6000881F7A95C9F780950895AA1BBB1B51E18F
:100C700007C0AA1FBB1FA617B70710F0A61BB70B0C
:100C8000881F991F5A95A9F780959095BC01CD01B1
:100C9000089597FB072E16F4009407D077FD09D02E
:100CA0000E94350607FC05D03EF4909581959F4F34
:100CB0000895709561957F4F0895A1E21A2EAA1BA1
:100CC000BB1BFD010DC0AA1FBB1FEE1FFF1FA217FC
:100CD000B307E407F50720F0A21BB30BE40BF50BF9
:100CE000661F771F881F991F1A9469F76095709582
:100CF000809590959B01AC01BD01CF010895A29F05
:100D0000B001B39FC001A39F700D811D1124911DDF
:100D1000B29F700D811D1124911D0895F894FFCF8D
:020D20000300CE
:00000001FF
